:020000041000EA
:1000000000B5324B212058609868022188439860DF
:10001000D860186158612E4B002199600221596106
:100020000121F02299502B49196001219960352056
:1000300000F044F80222904214D00621196600F024
:1000400034F8196E01211966002018661A6600F04E
:100050002CF8196E196E196E052000F02FF8012189
:100060000842F9D1002199601B49196000215960AB
:100070001A491B48016001219960EB211966A021F2
:10008000196600F012F800219960164914480160C1
:100090000121996001BC002800D000471248134993
:1000A000086003C880F30888084703B5996A0420EC
:1000B0000142FBD001200142F8D103BD02B5186610
:1000C0001866FFF7F2FF186E186E02BD00000240BE
:1000D000000000180000070000035F00212200005C
:1000E000F4000018222000A00001001008ED00E03C
:1000F00000000000000000000000000074B24E7A12
:1001000000200420F7010010C3010010C5010010F9
:10011000C1010010C1010010C1010010C101001097
:10012000C1010010C1010010C1010010C701001081
:10013000C1010010C1010010C9010010CB01001065
:10014000CD010010CD010010CD010010CD01001037
:10015000CD010010CD010010CD010010CD01001027
:10016000CD010010CD010010CD010010CD01001017
:10017000CD010010CD010010CD010010CD01001007
:10018000CD010010CD010010CD010010CD010010F7
:10019000CD010010CD010010CD010010CD010010E7
:1001A000CD010010CD010010CD010010CD010010D7
:1001B000CD010010CD010010CD010010CD010010C7
:1001C00000BE00BE00BE00BE00BE00BE00F04BF888
:1001D000103800BEF2EB8871742B0010902B0010C9
:1001E0003402001090A31AE700202149086006C8D5
:1001F00081F3088810471F48006800282FD10DA4FC
:100200000ECC002902D000F012F8F9E71A491B4A77
:10021000002000E001C19142FCD1194988471949E9
:1002200088471949884700BEFDE701C901C29A42C3
:10023000FBD37047902B0010C00000203412002028
:10024000043D00100000042000000420043D0010C4
:1002500000100420001004200000000070470B482C
:1002600001F066FF0047EFF30580C0B27047000061
:1002700008ED00E0000000D03812002090B200200D
:10028000F11800105D070010E1190010575600002A
:1002900006005250ABB36053CC2A001006005250F7
:1002A000861C0302DC2A0010060052505422A29D34
:1002B000E82A001005005250DE65F468043D001085
:1002C000F8B5C0460448054B10B5834203D0044B33
:1002D000002B00D0984710BD3412002034120020AB
:1002E0000000000006480749091A8B10C90FC918F9
:1002F00010B5491003D0044B002B00D0984710BD17
:1003000034120020341200200000000010B5074C09
:100310002378002B09D1FFF7D5FF054B002B02D026
:10032000044800E000BF0123237010BD38130020F3
:1003300000000000F8290010054B10B5002B03D079
:100340000449054800E000BFFFF7CCFF10BDC046E0
:10035000000000003C130020F82900100A4870B586
:100360000021050020242A005023013B147052185C
:10037000002BFAD1013101351929F4D12322034987
:1003800002F070F870BDC04668A50020F829001082
:1003900080235B019C460122F0B51B4E1B4D83B0B0
:1003A0008035B44428003400803811006F4623782B
:1003B000013419404942F971590811404942B97153
:1003C0009908114049427971D9081140494239715F
:1003D000190911404942F970590911404942B9704F
:1003E00099091140DB0949425B4279703B70019BDE
:1003F00000994360016008308542D6D110368035BF
:10040000B445CFD103B0F0BD7C0100209020002086
:10041000A02370B59B00084CC6180B7801311B0156
:100420009B18DD006559DB0005600433E358436029
:1004300008308642F1D170BD90200020F0B5DE4634
:1004400057464E464546E0B5052087B001F046FCCC
:1004500001F084FF5B4901F066FF5B4D071C5B48C0
:100460005B49286002F064F95A4C01212060286839
:1004700002F040F9584B18600C20984600F05CFCE4
:100480000B2000F059FC0A2000F056FCD0238022FB
:1004900080211B06D20009015A6299625A618022AA
:1004A00052019A62012100220B2000F02DFC012252
:1004B00000210C2000F028FC43461B682E689A4659
:1004C0002368994680235B0202934B464A461233C7
:1004D000D2011B031343414A13400393C0231B0360
:1004E000049380239B0505933D4BF418631E9C41A8
:1004F0000D239B4606345846210000F0EDFB0123F6
:100500009C46E3445B46182BF5D1354B0A20F41882
:10051000631E9C410634210000F0DEFB21000B200D
:1005200000F0DAFB21000C2000F0D6FB01230A22A8
:1005300051463000009302F06DF9059B381C9B4634
:1005400001F034FF84B20020002C0ED0200001F016
:1005500005FF011C381C01F0E0FE8721C90501F0F0
:10056000F6FE01F023FFC0B20002049B1D4A2404E2
:100570001A4080239B02134304935B461A4A514658
:1005800013401A00194B044313430593184A039B65
:1005900030001A40B0231B05134303934A4602ABB5
:1005A000029402F07BF943461868012383402A68CD
:1005B00011680B43136007B03CBC90469946A246B5
:1005C000AB46F0BD8096184C98A400200000305037
:1005D000402A00108CB0002088B00020FFFFFF9F51
:1005E0000000E0AFFFFF00C0E003001C0DA8A62044
:1005F000FFFFFF80274B30B51B6883B01A6B920654
:100600001ED5FF21244A126808329200D258100ADF
:100610000140C4B2D2B201A84254002C2BD11F49D0
:100620001F4D0C682A55FA22601C0860D2009042C7
:1006300026D819008022303192010A43202111600E
:1006400040241A6B144214D0134A01A8116889007F
:1006500059180A6A30331204120E805C020605042F
:100660002A430243000202430A618022920113439B
:100670001C6003B030BD032CDBD10A2AD9D1074955
:1006800000220A6019008022303192010A432021A1
:100690001160D5E798A4002088B000209CA4002019
:1006A00068A50020F0B54F464646D646FB23C0B5A8
:1006B000A0269A46F23B9946F63305000024984658
:1006C0000027B60005E001281FD02F550134B442A1
:1006D0000CD0A021200001F059FD022812D00328DF
:1006E000F1D14B462B550134B442F2D1A0239B00EB
:1006F000E818A022002101F0AFFE1CBC90469946EC
:10070000A246F0BD53462B55E0E743462B55DDE7A7
:1007100010B50400A422FF2101F09EFE2000182243
:100720005521A43001F098FE20000C22FF21BC309E
:1007300001F092FE22002000AA210024C83205E028
:10074000552B00D104700130904206D00378FF2B66
:10075000F6D1017001309042F8D110BDF0B5DE46FF
:1007600057464E464546E0B593B0FFF711FEF648B2
:10077000FFF798FFC82292009446F34B6344180099
:100780001C00FFF78FFFC82200219200EF4801F004
:1007900063FEA422FF21EE4801F05EFEEC48182221
:1007A0005521A43001F058FEE9480C22FF21BC304D
:1007B00001F052FEE748FFF7ABFFFFF7CFFD002245
:1007C000E549E148FFF724FE0022E3492000FFF756
:1007D0001FFE052001F082FA01F0C0FDDF4901F0A3
:1007E000A2FD051C052001F079FA01F0B7FDDB49F7
:1007F00001F099FDDA49041CDA4801F099FFDA4961
:100800008246D84801F094FF01210290D54801F0BA
:1008100071FF01218146D34801F06CFF0023802243
:100820000D93F82352025B020A920B93C02310220D
:100830001B030AA907000EA89B460C9301F012FEA9
:1008400080235B020E935246534604320133120357
:10085000DB0113430F935B4610220EA90AA81093E5
:1008600001F000FE8023201C1B040D9301F09EFD6F
:1008700083B29B460020002B0DD0180001F06EFDC6
:10088000011C201C01F049FD8721C90501F05FFD15
:1008900001F08CFDC0B25B46002400021B0418432B
:1008A0000A9020000621013400F016FA082CF8D135
:1008B000012300229B463900AA480093073301F028
:1008C000A9FF0C9BA94A39001A40A0231B0313431C
:1008D000A44852460C930AAB01F0E0FF00238022AB
:1008E0000D93F823C0245B0252020A920B93240357
:1008F00010220AA90EA80C9401F0B4FD8022029BDC
:10090000520202330E92DA011B0313430EA9102286
:100910000AA80F93109401F0A5FD0621082000F00D
:10092000DBF90621092000F0D7F95B460822494689
:100930008C480093013301F06DFF0D9B8C4A281CFD
:100940001A408C4B13430D9301F030FD84B200200C
:10095000002C0DD0200001F001FD011C281C01F02D
:10096000DCFC8721C90501F0F2FC01F01FFDC0B2DB
:100970000C9B7E4A24041A4000027F4B2043794C92
:1009800013434946029A0A900C9320000AAB01F0E7
:1009900085FFBB009A462300002553441D611D615D
:1009A0001D614B469B009C46210061440D61012066
:1009B0000D610D61029301F0B9FF704AC3029346C5
:1009C0001340FA0313431922134382011100A0229A
:1009D0008C466B48D20562445044156003915060C8
:1009E00011000992BE2201208A600B6101F09EFF76
:1009F0005946C3020B404946CA038101080013430C
:100A0000844611225E480791A02182461343029A30
:100A1000C905614452440D604A60C8228A600B6176
:100A20000891FFF70BFD01231800B8400200216870
:100A300045480A4349468B40226022684649134391
:100A400023600022FFF7E4FCC82189008C463E4B5E
:100A50000022634418004049FFF7DAFC039A0023A0
:100A60001500484A069393468022520405935D443C
:100A7000934642469846F0234349444C89464449AC
:100A800002928A465B00984500D383E043461A09E8
:100A900093009B181B0106930123059A9B1A9C4601
:100AA0009F0067440593BB00FF18274A7F013B0066
:100AB00094466344029343465E1CB3B298460F23A8
:100AC0001E40234B0493099B029ADA63089B049A05
:100AD000DA63069A204B9446012263441900059B71
:100AE000013313409A00D2189300D218164B5201CA
:100AF0009C46A02362449B00D7180B7801311B0150
:100B00009B19D800DB0004332058E3581060536071
:100B100008329742F1D15E465A462B681E40134276
:100B200000D0BEE05A462B681342FBD11549079B03
:100B30008C4663441A00594613680B42FBD1F023DC
:100B40005B009845A2D325E01014002068AD00207A
:100B5000A0A40020D0A3002068A5002020BCBE4B8C
:100B60001C2A001000002050302A0010FFFFF5C1A1
:100B7000E0FF0FFC0800200000000210FF7F00FFD4
:100B8000100020501000005088B00020902000205D
:100B90009CA40020F5235B00984576D3023398454A
:100BA00000D282E02033984500D981E0454B049380
:100BB000099B454ADA63089B049ADA63434601338A
:100BC0009BB29846002E77D05A462B6813424DD0E0
:100BD0003E4B802218689201030030331A432027CD
:100BE000944640260295036B1F4221D04B46FF25B9
:100BF0001B6808339B001B581A0AD1B22A40039283
:100C0000182208ADAD18039ADBB2AB54002937D1D6
:100C10005246554611684A1C2A602D4D6B54FA23E2
:100C2000DB009A4202D9534600221A6063461F60D5
:100C3000036B1E421ED04B46FF2118251B689A00ED
:100C40008218136A1B0A0B4008A94919C95C0B06D4
:100C50000D042B430B4309021943634611615A46A5
:100C60001E60029B1B681342BDD1029D164B0126DC
:100C7000029357E75A46029B1B681342B3D1F4E72D
:100C80000329D3D10A2BD1D1CDE7099B0E4ADA63D0
:100C9000089B0C4ADA63434601339BB298460492A0
:100CA00092E7FFF7A7FC00263CE70A4B04937FE797
:100CB00001230126984606E70F261E40024B0293A9
:100CC00007E7C046A0A4002068AD002098A400203B
:100CD00068A50020D0A30020094A83009446402242
:100CE000634410B51C68C0006240C02414408022D8
:100CF000520113431C60034B9C466044416010BD8D
:100D000004C00140004001400A4B80009C4604237F
:100D10006044002901D00C230821002A00D10B00D7
:100D2000026853400C221A4080235B011843026082
:100D30007047C04604C001400123D0228340120600
:100D400093629361094A8300944640226344196880
:100D5000C0004A40C0211140802252011343196053
:100D6000034B9C46052360444360704704C0014028
:100D700000400140EFF3108072B6034A1368002B65
:100D8000FCD0BFF35F8F70472C0100D0BFF35F8FA3
:100D90000022024B1A6080F3108870472C0100D0AB
:100DA000F8B5EFF3108772B60E4E3368002BFCD007
:100DB000BFF35F8FCB08C4180725A446C45C01238A
:100DC0000D40AB4018002040234208D16246234327
:100DD0001370BFF35F8F306087F31088F8BD100089
:100DE00000F000FE2C0100D0F8B5CE4647468C46F8
:100DF00080B5EFF3108872B6214D2C68002CFCD022
:100E0000BFF35F8F9A422CD8D4080721055D0619DD
:100E1000012411408C402C421FD0072189460639FD
:100E200009E0D408055D06194C460F001440A740A0
:100E30003C002F4211D001329342F2D201204042B5
:100E4000BFF35F8F00220E4B1A6088F310880028D2
:100E50000FDB0CBC90469946F8BD2C431000347053
:100E6000EEE7BFF35F8F00232B6088F3108801202B
:100E700040426346002BECD0089800F0B3FDC0461A
:100E80002C0100D0024B18688007C00F7047C04685
:100E900000C006400021044B044ABFF35F8F02C329
:100EA0009342FAD17047C046000100D0800100D0C3
:100EB000044A1078431CDBB2172B00D9102313709F
:100EC0007047C0467C11002083680B4810B58446EB
:100ED00061446244090112019A18591854684B6818
:100EE00001209C4201D802D00020C0B210BD12687F
:100EF0000B689A42F9D8F7E7FFFFFF0FF8B557469E
:100F000045464E46DE46E0B599460CAB19780DAB2A
:100F10001B78050090469A460768002912D1BE7BCF
:100F2000002E45D074003B68A419033C1B195A7865
:100F30003100BA73002A00D1FA7300229A705A70F5
:100F40001A7003E00E004C006418033C2C4B002286
:100F50009C46AB6861449C464346090161440B6072
:100F60004B464B600A9B8B600B9BCB603B681B190D
:100F70009A705A701A707B7B9B46002B2CD03200E3
:100F80005946B8687B6898473A68002817D05B468E
:100F900058465B005B441419033BA070D118D35C26
:100FA000002B00D063705B460E707B73B34514D08A
:100FB00030003CBC90469946A246AB46F8BD5B4625
:100FC0005B005B44033BD3189E701119125D002A2D
:100FD00000D05A705B460B707E7342464B46287DAC
:100FE00000F0DEF9041E06D05346002B03D1310079
:100FF000286800F03FFC0E9B002BD9D01C70D7E76F
:10100000FFFFFF0FF0B5DE464E465746454600232C
:10101000E0B58DB00A936B4B8200D3580B90994684
:1010200000239B464B46079300F06AF9079C060095
:101030000F006268EFF3108572B61368002BFCD0C6
:1010400022000794BFF35F8F2468637B9946002BCF
:1010500067D092685C4B90464B441B0198444346D2
:101060001A685B6810001900801BB94100295FDD18
:101070000B9800F095F900230026984600279A4621
:10108000079C6368BFF35F8F5A461A6085F3108828
:101090005346002B08D10028C6D10DB03CBC904669
:1010A0009946A246AB46F0BD0A9B414618024B4604
:1010B0001843D047089009916268EFF3108572B623
:1010C0001368002BFCD00794BFF35F8F0899099A2F
:1010D000002A48DB114303D0079B1B69002B5DD11D
:1010E000079B1B68DA7B002A07D051008A18196811
:1010F0008C4649466244033A51704A46DA734B467D
:10110000079A013BD168CA5C0132CA545B46079A10
:1011100013615368BFF35F8F5A461A6085F31088D6
:1011200082E700230026984600279A460020A7E77A
:10113000002901D100289BD10021200000F0FCFAF9
:1011400043461E685F689B68079A9A464346DB6879
:101150009846D3684B44013B1B780A931B02034318
:10116000136100208CE72369002BB9D033003C00C9
:101170005B1A94411A002300A74219D89F421BD042
:10118000594604910121039149460291414601913A
:10119000514607980091FFF7B1FEB7E700F0B0F8AD
:1011A000089A099B06000F0092197B419942E5D9E4
:1011B00001225242D317E3E79642E1D9012252427B
:1011C000D317DDE7E0130020FFFFFF0F10B5124C2F
:1011D0006368002B04D00A21104800F073F910BD99
:1011E00023000F4A1021206800F0C4F9032000F00A
:1011F0007BF8032000F046F903200A4900F08AF842
:10120000FFF756FE084B9C46032360442375074BAB
:1012100080006060DC60DEE780110020F4130020B5
:10122000C90E00100510001040000034E01300202B
:10123000F0B5D6464F464646C0B5EFF305833F228C
:10124000134018001038EFF3108C72B6204D2A6846
:10125000002AFCD0BFF35F8F0122110081401D4C9A
:10126000884661631C4917000E788A463100C140E8
:101270000F400A4215D019498200646A51588C42C5
:1012800019D3174BD25843469E4353461E70BFF3A3
:101290005F8F00232B608CF31088002A06D09047C4
:1012A00004E0BFF35F8F2F608CF310881CBC904666
:1012B0009946A246F0BD0B4A9B00904643441A68EB
:1012C0001A60BFF35F8F00232B608CF31088EDE76B
:1012D000280100D0004005400D140020F813002024
:1012E0005C130020D03F054010B50100024A0348BE
:1012F000FFF756FD10BDC046702A00100A140020EA
:10130000034B596A0A00986A596A8A42FAD17047AF
:101310000040054070B504000D00EFF3108672B672
:101320001A4A1368002BFCD0BFF35F8F002D1BD02F
:10133000200000F0EBFC164981420AD0200000F0AA
:10134000EDFC0121200000F0CFFC0123A340114A55
:101350001360114BA400E550BFF35F8F00220B4BCD
:101360001A6086F3108870BD0B4BA200D550012285
:10137000A2400A4920000B7893430B70044900F007
:10138000F7FC0021200000F0AFFCE5E7280100D0C9
:1013900031120010386005405C1300200D1400204D
:1013A000F0B54F46D6464646C0B50700304C616A98
:1013B0000D00A66A616AA942FAD18B4208D805D00D
:1013C00001201CBC90469946A246F0BDB242F7D916
:1013D000EFF3108972B6274801680029FCD0BFF3EB
:1013E0005F8F01252449BD408C460978204C0E00B2
:1013F0002E438846F1B28A46614650460870391D30
:101400001E48890065630A51B9000B50216A00200B
:10141000294219D0616A0800A66A616A8142FAD13C
:101420008B4219D801D1B24216D8C2451DD0104BFB
:101430001F201D625D6301230740BB40104A1E3818
:101440001360634642461A70BFF35F8F0022094B58
:101450001A6089F31088B4E70020BFF35F8F002281
:10146000044B1A6089F31088ABE70120ECE7C04613
:1014700000400540280100D00D140020F813002082
:1014800080E200E010B5EFF3108472B60A490B68F1
:10149000002BFCD0BFF35F8F01238340074A08482D
:1014A000136202789A430270BFF35F8F00230B60D0
:1014B00084F3108810BDC046280100D000400540CC
:1014C0000D140020024B9C46614489000160704766
:1014D0004000003410B50400FFF7EAFC01002000D2
:1014E000FFF7F0FFFF232371BFF35F8F10BDC046EE
:1014F00010B50400FFF7DCFC01002000FFF7E2FF5D
:10150000FF23A380BFF35F8F10BDC04670B50500F9
:101510000E001400002924D0002A24D080686B68B3
:101520009847296800280ED063001B197200033BFE
:101530009219CB18033A9E7088188A5C002A14D13D
:10154000047030000EE073009B196200033B121917
:10155000CB18033A9C7088188A5C002A00D05A7015
:101560000670200070BD0800FCE75A70047030005F
:10157000F8E7C04630B583600023CCB24373013333
:10158000047342608373C4730D000068012C06D994
:10159000421C0133DBB2137003329C42F9D1FF21AC
:1015A00029404B005918002340180338437030BDC0
:1015B000F8B5CE46474606000C0080B5002907D096
:1015C0004D0003686D18033D5A195778002F04D158
:1015D00020000CBC90469946F8BD7900C919033922
:1015E0008846434459788946002159705170736880
:1015F0003A002100806898473368002814D042469A
:101600009A18947059195B5D002B00D053700F70BD
:10161000270049463000FFF7CBFF390002003000B9
:10162000FFF774FF0400D3E7424641465D19AF70EF
:101630009A185B5C002B00D06B701470E9E7C04611
:10164000F0B557464546DE464E46E0B50D006B0008
:1016500001685B19DF1E0400C85D83B00192CA19DE
:1016600000284CD043001B18033BCB185E78B446CF
:10167000002E16D1019E002E3ED0E67B002E04D017
:1016800073009B19CB18033B5D70E57300282FD1C5
:101690000023537003B03CBC90469946A246AB462B
:1016A000F0BD72006244033A89184A7890460022DD
:1016B0004A7091465A70010032002000FFF726FF61
:1016C00043468246002B07D05B0021684344033B1E
:1016D000CB185A78002A16D1424651462000FFF70F
:1016E00015FF2168019BCA19002BC6D10028CFD055
:1016F00043001B18033BCB1800219970C8E7019BDE
:10170000002BBAD1C4E75000801803380918487874
:10171000834648464870587041462000FFF7F6FE61
:10172000594680462000FFF743FF41460200200053
:10173000FFF7ECFE8046CFE7F0B54E464546DE4665
:101740005746E0B5467B040075000068AD19033DBF
:1017500083B00191415D421900294ED04B005B18C6
:10176000033BC3185F78BC46002F18D1019D002DA4
:1017700040D0E57B002D04D06B005B19C318033B00
:101780005E70E673002931D100233000537061731D
:1017900003B03CBC90469946A246AB46F0BD7A00E9
:1017A0006244033A80184278934600224270914680
:1017B0005A7020003A00FFF7A9FE5B468046002BD6
:1017C00007D05B0021685B44033BCB185A78002AA2
:1017D00017D15A4641462000FFF798FE019B0100B1
:1017E00020684219002BC4D10029CDD04B005B18D2
:1017F000033BC31800209870C6E7019B002BB8D1AB
:10180000C2E75000801803380918487882464846D5
:101810004870587059462000FFF778FE53468346BB
:10182000002B07D05B0021685344033BCB185A7848
:10183000002A06D1594652462000FFF767FE83462C
:10184000C7E7500080180338091848464F78487099
:10185000587051462000FFF759FE3900814620009C
:10186000FFF7A6FE494602002000FFF74FFE824622
:10187000E0E7C04670B5040000292CD0437B8B42C2
:101880002ED0056848004018033828188278002AAE
:1018900021D053009B18033BEA5CEE188A4202D128
:1018A0001BE0002A08D053009B18033BEB185A7822
:1018B0008A42F6D142785A70002301228370437025
:1018C0002000FFF7BDFE617B02002000FFF71EFE37
:1018D0006073012000E0002070BD43783370EBE7B7
:1018E00001221900FFF7ACFE60730120F4E7C04647
:1018F0002C4B2D4A70B51A602C4A2D4B2D491A607D
:1019000010008B689843FBD12B4C2C4B9C4209D286
:10191000013B1D1BAD080135AD002D1908CC9847C2
:10192000AC42FBD100F07CF8254A214B1A60214AD9
:101930009368DB018033FBD14022224B224C234DA4
:101940009A675A671A67DA66AC4208D223682000A1
:10195000002B21D00834FFF7CBFDAC42F6D31C4C52
:101960001C4DA168C022280000F07CFDA560FFF797
:1019700091FA00F035FBFFF729FC174C174B9C42FE
:1019800009D2013B1D1BAD080135AD002D1908CC56
:101990009847A542FBD170BD0834FFF79BFDAC42D0
:1019A000D4D3DCE700E00040BFCDFBFEFE7F3C006F
:1019B00000F0004000C00040201200203012002043
:1019C000FFFFFF0100F00140101200202012002054
:1019D00000ED00E000000020301200203412002052
:1019E00000BEFDE70FB400B5084883B000F064FE08
:1019F000049B002B07D005A91800019100F078FB8B
:101A0000034800F059FE00BEFDE7C046942A0010CE
:101A1000A42A001010B50148FFF7E4FFA82A00101F
:101A200030B50C2083B000F03FFBFFF72BFA002805
:101A30000ED0944B944A1A605A609A60DA601A6128
:101A40005A619A61DA611A62904A5A6203B030BDF3
:101A50008F4CA06700F030FB01228E4B1A60636C44
:101A6000012BFCD103228C4B1A60894A936B012B0A
:101A7000FCD102240121894A89480533009400F0F1
:101A8000C1FA0523874A01218748009400F0BAFA79
:101A9000864B5A68FF2A02D8802252005A60802260
:101AA000784C7D4B21691201804D1A60002905D0C8
:101AB000606900F093FB01300138FDD1E0217B4BE0
:101AC00002201A681140802252012A4311601968CD
:101AD000484003210140116004219A681142FCD062
:101AE0008022802192012A43090111608022520044
:101AF0005A606F4B23616F4B5968FF2900D85A60B9
:101B000003226C48634B01211A600200936819425A
:101B1000FCD0E02513681D4080235B0103431D605A
:101B200012684A400321114019600221614A9368FA
:101B30001942FCD0802380219B01034309011960D5
:101B400080215D4B4900516063615C4B5A68FF2AFC
:101B500000D8596080225A4BE1691201574D1A6032
:101B6000002905D0606900F039FB01300138FDD152
:101B7000E02252490B681A4080235B012B431A6014
:101B8000802380229B012B4312011A6080223E4B4E
:101B900052004A60E3614B4B5968FF2900D85A60F4
:101BA0008022494B216A1201464D1A60002905D056
:101BB000606900F013FB01300138FDD1E02241499A
:101BC0000B681A4080235B012B431A60802380221C
:101BD0009B012B4312011A60802380225B004B6023
:101BE000294BD2022362394B5968914200D25A6084
:101BF0008022374B616A1201344D1A60002905D0EA
:101C0000606900F0EBFA01300138FDD1E0222F4984
:101C10000B681A4080235B012B431A6080238022CB
:101C20009B012B4312011A608023DB024B60174B90
:101C30006362284B5A68FF2A02D8802252005A60F9
:101C40008022254BA1691201224D1A60002905D07E
:101C5000606900F0C3FA01300138FDD1E0221D496E
:101C60000B681A4080235B012B431A60802380227B
:101C70009B012B4312011A6080235B004B600E4BCB
:101C8000A361E3E66C130020006CDC021BB70000CC
:101C9000008000403CB0004030B00040002F685948
:101CA0000080024000389C1C00C002403080004090
:101CB000001BB7003C80004040597307548000402F
:101CC00054B000406080004060B000406C80004034
:101CD0006CB000404880004048B00040014B80009C
:101CE000C05870476C13002001238340002904D0A2
:101CF000034A1360034A13607047034A1360FBE70B
:101D000080E200E000E100E080E100E0024B103002
:101D10009B688000C058704700ED00E070B50D0072
:101D2000EFF3108672B60F4A1368002BFCD0BFF396
:101D30005F8F0D4B10309B6884001B590B4A9342F8
:101D400003D09D4201D0FFF765FE074B9B681D51F4
:101D5000BFF35F8FBFF35F8F0022024B1A6086F3E1
:101D6000108870BD240100D000ED00E0CD0100100E
:101D7000F0B5DE4657464E464546E0B50C0083B00A
:101D8000EFF3108A72B65B4A1368002BFCD0BFF3E6
:101D90005F8F1022914681444A46574B96009B68BC
:101DA0009D59564B98469D4205D0A54216D0544F9A
:101DB000EB1B2F2B14D9504B9B689D51BFF35F8FAA
:101DC000BFF35F8F00224B4B1A608AF3108803B079
:101DD0003CBC90469946A246AB46F0BD1D00EAE7E2
:101DE000012383409B465A46464B1B681A4000928B
:101DF0005A46454B1A60BFF35F8FFEF734FA0190E5
:101E0000002803D0814501D0FFF704FE01232A00FA
:101E10009A4313003D49DB1B5B415943090D93680D
:101E20009C4208D15BE043001B189B00FB1898689C
:101E3000A04211D01A00062010560028F3DA009BA9
:101E4000002B05D05A46324B1A602E4B1A60B2E76F
:101E50005A462D4B1A60AEE706201856002822DBA2
:101E60004200111889007C188846A1689960E179C0
:101E7000D971062161569971A1797F291FD8A4884B
:101E8000F91A6405241544440919E0240905490D8B
:101E900024022143998012181E4B9200BF181A7811
:101EA0001870BA71CBE7019800280BD1FF30907100
:101EB00019489080174A107811709871BFE7BD21BA
:101EC0000902E7E7154A1649D21A083A5002400DAE
:101ED00001439980134952080A43DA80AFE706208C
:101EE000105613000028BBDA019A002AEAD14546B1
:101EF000E0E7C046240100D000ED00E0CD01001075
:101F0000A811002000E100E080E100E0AAAA0000A2
:101F100080E200E00C14002000BDFFFFE211002071
:101F200000F0FFFF00F8FFFFF8B5012504000543AE
:101F3000FEF799F90300EFF3108672B621490A689B
:101F4000002AFCD0BFF35F8F1F4A20001F49801A70
:101F500040414143090D1E489B00876849B2FF5824
:101F6000AF421CD00623D3568B421CD01223D3562B
:101F70008B4222D01E23D3568B4220D02A23D35605
:101F800003208B4210D0134B1A781970A271BFF343
:101F90005F8F00220B4B1A6086F31088F8BD8268B1
:101FA0000D48D050EFE7002043001B189B00D218CB
:101FB000FF239371094B9380E5E70120F4E70220AA
:101FC000F2E7C046240100D0A8110020AAAA000010
:101FD00000ED00E00C140020CD01001000BDFFFF5B
:101FE000054B064A1360064A136053609360D36042
:101FF00013615361936170478080808000E400E04A
:1020000004E400E0F8B504000C2017001D000E00E9
:1020100000F0E4F84101091A8B01591AC9000918A6
:102020008901380000F0DAF8069A2B0412031343F2
:102030002268002A21DB184AA21851424A41802115
:1020400049018C4652420A40144962440A601449CC
:102050000A60144917008D68AF43FBD1C021221DCF
:102060008901114321222660A0600A602268002AAB
:10207000FCDAE36008230B60F8BD3F2221680A40C8
:10208000B242D8D1A2681205120D8242D3D1E268C1
:10209000002BD0D1F0E7C0460040FDBF00E000407B
:1020A00000F0004000C000408023024A9B00034330
:1020B000D362704700800540AA23064A1B011360C3
:1020C0002F230549D360054B19605368002BFCDAB8
:1020D0007047C0460040024000B0FA000060024075
:1020E00010B5002800D110BD00F094FAFBE7C046FF
:1020F00010B5094A0300146884B0002C08D00122EE
:1021000000910648524203A9A047012004B010BD27
:1021100000F0D2FA0020F9E7DC130020E1200010E3
:1021200001480421014B1847F011002051210010F3
:10213000142310B50100188804331B88984710BD7C
:10214000162310B50100188802331B88984710BD6C
:10215000F0B5C64600B5002916D0142304000125A9
:1021600098461827890046184346216818883B88F6
:10217000984701C4431E984140420540A642F3D10E
:10218000280004BC9046F0BD0125F9E7124A936F80
:102190009B0815D29066D166002905D0FFE7FFE7BE
:1021A000FFE7516F106F704704B580210906C21711
:1021B0005140002800D0C84300F006FC002104BDB7
:1021C000F0B5146E556E576F166FFFF7E3FF146688
:1021D000556657671667F0BD000000D0114A936F2F
:1021E0009B0813D210665166002905D0FFE7FFE770
:1021F000FFE7516F106F704704B5002801D0002031
:10220000C04300F0E1FB002104BDC046F0B5146EF0
:10221000556E576F166FFFF7E5FF146655665767E3
:102220001667F0BD000000D0132370B51D78012D96
:1022300015D010DD2748FFF783FF274C01008022CF
:10224000200000F00FF9022D06D02448FFF770FFA0
:10225000234B186070BD204C224AA264F5E72E0083
:102260001D4C204AA3085B421E401D422FD0330064
:1022700022602020B1006118801B0A604A608A60D9
:10228000CA600A614A618A61CA610A624A628A62F4
:10229000CA620A634A638A63CA630A644A648A64D4
:1022A000CA640A654A658A65CA650A664A668A66B4
:1022B000CA660A674A674008102803D18A67CA6756
:1022C000A264C2E71E339B00E250A264BDE7002374
:1022D000CFE7C0465344000090B000204C330000CC
:1022E000F0130020E922001007B5604601880A0AB1
:1022F0000230DF2AFAD1C9B2820804D302884088AA
:102300000004104300E00068014A5050039007BDEC
:1023100090B000204840414048400E4B5B68184751
:102320000C4B1B6818470C4A936F9B0802D2094B51
:10233000DB681847F0B5146E556E576F166FFFF7D0
:10234000F6FF054A1466556657671667F0BD014BE0
:102350009B68184790B10020000000D0491A00285F
:1023600008D1084670470000C10FC90700D5404298
:10237000002817D0F44603B40B4B1B68984706BCE3
:1023800081409E384042803107D20B0607D0490079
:10239000490AC0051043084360470130F8E7490A7D
:1023A0008902F5E770470000F0130020014B5B6ADB
:1023B0001847000090B10020132310B512481C7874
:1023C000FFF7BEFE0100012C0AD003DD80220F487A
:1023D00000F048F80E48FFF7ABFE0E4B186010BD3A
:1023E0000A4C5422200000F03DF80B4B6365A365B6
:1023F000E36523666366A366E36623676367A36793
:10240000E3672362E361E5E75346000090B10020F3
:102410004C330000F01300201D24001007B5604667
:1024200001880A0A0230DF2AFAD1C9B2820804D32D
:10243000028840880004104300E00068014A5050C0
:10244000039007BD90B1002001480421014B1847BB
:102450000012002051210010014B1B68184700009A
:1024600000120020014B5B6818470000001200209A
:10247000030010B508001B681100984710BDC04646
:10248000F8B54746CE4680B5437C07000D001600E0
:10249000002B37D000240020002A1EDD4B1E98465A
:1024A0001B4B9946002C2BD043461B5D0D3B5A42DB
:1024B0005341DBB22A5D0A2A13D00134A642F1DC73
:1024C000864203DD311A3B6828189847AD19013D53
:1024D0002B780D3B5A4253413B740CBC90469946B5
:1024E000F8BD002BE9D1A04203DA211A3B68281875
:1024F0009847484602213B68013498472000DDE7B1
:102500003B7CD7E70368110028009847E5E7C04601
:10251000182B0010F0B557464E464546DE461C00C7
:10252000D023E0B51B061F68354B83B006000D00B5
:10253000180001A991469A4600F04EFA80460028FC
:1025400008D1019B7FB29F4204D0504600F04CFA64
:10255000012398466B1C03D1300000F0F7F9050009
:10256000002C2AD1274F284B1C68002C18D04B4632
:10257000002B24D1254B994602E0E468002C0FD0B3
:102580002368002BF9D04B461B68002B01D0A342D7
:10259000F3D120002A003100B847E468002CEFD1C5
:1025A0004346002B28D1681E8541E8B203B03CBCED
:1025B00090469946A246AB46F0BD154FD3E7134B64
:1025C00099460A239B4602E0E468002CE8D0236881
:1025D000002BF9D04B461B68002B01D0A342F3D14E
:1025E0002A0031002000B8475A466B4620001A7175
:1025F00001A90122B847E7E7504600F0DDF9D2E72C
:102600001812002081240010D4130020D8130020B9
:1026100071240010F0B54746CE4680B583B06B46B6
:10262000DF1CD02338701B061C68204B060001A954
:102630001800984600F0D0F9051E22D01C4B1C68EB
:10264000002C2AD01B4B994602E0E468002C10D0E5
:102650002368002BF9D04B461B68002B01D0A34206
:10266000F3D1200001223900FFF70AFFE468002CB3
:10267000EED1002D11D1300003B00CBC904699462C
:10268000F0BD019B64B29C420BD0404600F0ACF917
:10269000074B01251C68002CD4D1404600F08CF972
:1026A000E9E7034B1C68002CCCD1E4E718120020AA
:1026B000D4130020D813002070B5040000F046F9B0
:1026C00000230100050001222000FFF723FF084B33
:1026D0001C68002C06D06368002B05D09847E4687E
:1026E000002CF8D1280070BDE468002CF3D1F9E784
:1026F000D41300200B4B10B59C4660444442444127
:10270000094AA40082B0009208482200E31CFEF7A8
:102710006BFB844202DC001B02B010BD0120404272
:10272000FAE7C0460000D0AF1C2B00100B140020AD
:10273000F0B5DE46454657464E46E0B5060083B046
:102740000D00FEF717FB304B2F79F1184B42594122
:102750002E4B052498468B009B4643465A469B5871
:1027600020229C460123BB4001902C57013BD21BE9
:10277000002C32DB944243DCA34062461A423FD134
:102780009946002F18D06B782A781B021A43AB7831
:102790001B041343EA7812061A439246002351465B
:1027A0005A008D5A6A0B00D12D191A191232920053
:1027B000013395519F42F2D863464A465946134326
:1027C000424601985350FEF7E1FA200003B03CBCAA
:1027D00090469946A246AB46F0BD002A10DB190090
:1027E0006046914014008946014207D1C9E71800AC
:1027F00061469040140081460842C2D0013AF6D2A8
:102800000348FFF7EFF8C0460000D0AF5413002094
:10281000402B0010F0B54E464546DE4657468B46E7
:102820004900E0B50D0080465D44ED0045442800B8
:1028300009AC2678DC30741EA641894601687442D2
:102840008C4615491F268A4626405644052B0ED92C
:10285000A02149058A461F27D835514654010C430B
:102860000532053B04603A402E60052BF5D85946E9
:102870004944C90041449B0652011A430B00080019
:10288000DC331A606246D83006601A603CBC904661
:102890009946A246AB46F0BD80E00000F0B50125A8
:1028A0008D400468AC434D0004606C18E4000419CA
:1028B0002600C836002B2AD01F68DC3437605F68DA
:1028C00077609F68DB68B76023606B18DB001D00D2
:1028D0008024D035451964012C4380252D062560C0
:1028E0002560114C0D1D8C40846001242700AF40F1
:1028F0003D0008318C401F2106680A4035430560C1
:1029000005682C430460C018D8300260F0BD8027F1
:102910007F023760F8277F027760C027DC343F03EF
:10292000B7602360D1E7C0460101010100B5054B46
:1029300083B00100009300220B230348FEF754FAF2
:1029400003B000BD542B00100814002010B58307FD
:1029500027D00378002B26D00300032102E01A7849
:10296000002A1CD001330B42F9D119680F4A104CD0
:102970008A188A4322420FD1043319680B4A8A18F5
:102980008A43224208D104331968084A8A188A43C4
:102990002242F1D000E001331A78002AFBD1181A44
:1029A00010BD0300E1E70020FAE7C046FFFEFEFE8F
:1029B00080808080F8B5C04601B40248844601BCDE
:1029C000604700BF5101002001B40248844601BCA9
:1029D000604700BF7901002001B40248844601BC71
:1029E000604700BF0901002001B40248844601BCD1
:0829F000604700BFC100002098
:1029F800496E697469616C20627566666572202D1E
:102A080020494F2033392D313020746F207265737F
:102A180065740000242A001005FF000027C0086024
:102A28000860086008600000382A001003FF0000F2
:102A380047C042A002600000482A001013FF0000AF
:102A480042A20C2042A2E3A08A6042A00A40008071
:102A5800CF00EBA08B6026C080800860100025C0E6
:102A680042B08C3042B00000486172647761726590
:102A780020616C61726D20256420616C72656164EF
:102A88007920636C61696D65640000000A2A2A2A4E
:102A98002050414E4943202A2A2A0A000A000000F1
:102AA80048617264206173736572740052656C6565
:102AB80061736500626F6F74325F773235713038D9
:102AC80030000000312E332E300000007069636F33
:102AD8000000000073696D706C655F7667610000C7
:102AE80041707220323220323032320006005250A9
:102AF800BBFF3CB6D42A001006005250E182887F02
:102B0800BC2A001006005250D3F07542B42A0010B7
:102B18000D0A00004E6F2050494F20737461746590
:102B2800206D616368696E657320617265206176E6
:102B380061696C61626C65004E6F2070726F6772BC
:102B4800616D207370616365000000004E6F204462
:102B58004D41206368616E6E656C732061726520FB
:0C2B6800617661696C61626C65000000C0
:102B7400B4020010A80200109C020010F42A0010F5
:0C2B840090020010002B00100C2B001021
:102B9000D02330B500251B0600245D5706E00368EE
:102BA000BFF35F8F1C6081F3108820BF0268EFF3D2
:102BB000108172B61368002BFCD0BFF35F8F0379CE
:102BC0007F2BECD905710368BFF35F8F00221A6079
:102BD00081F3108830BDC046030010B50068EFF3E4
:102BE000108472B60268002AFCD0BFF35F8F042203
:102BF0009A56002A0BDB00290FD000200A601B68C0
:102C0000BFF35F8F00221A6084F3108810BDD022BA
:102C10001206126801201A71F1E70020EFE7C046A2
:102C20000268EFF3108172B61368002BFCD0BFF37B
:102C30005F8FFF2303710368BFF35F8F00221A6069
:102C400081F3108840BF70477047C0460000000005
:102C500000000000000000000000000000007E8175
:102C6000A58181BD9981817E0000000000007EFF6A
:102C7000DBFFFFC3E7FFFF7E000000000000000055
:102C80006CFEFEFEFE7C381000000000000000001C
:102C900010387CFE7C381000000000000000001896
:102CA0003C3CE7E7E718183C000000000000001873
:102CB0003C7EFFFF7E18183C000000000000000072
:102CC0000000183C3C18000000000000FFFFFFFF60
:102CD000FFFFE7C3C3E7FFFFFFFFFFFF00000000A8
:102CE000003C664242663C0000000000FFFFFFFF20
:102CF000FFC399BDBD99C3FFFFFFFFFF00001E0E7C
:102D00001A3278CCCCCCCC780000000000003C66B5
:102D10006666663C187E18180000000000003F330D
:102D20003F3030303070F0E00000000000007F6382
:102D30007F6363636367E7E6C0000000000000187C
:102D400018DB3CE73CDB1818000000000080C0E006
:102D5000F0F8FEF8F0E0C080000000000002060E6F
:102D60001E3EFE3E1E0E0602000000000000183C43
:102D70007E1818187E3C18000000000000006666EF
:102D800066666666660066660000000000007FDB1F
:102D9000DBDB7B1B1B1B1B1B00000000007CC660D9
:102DA000386CC6C66C380CC67C0000000000000001
:102DB00000000000FEFEFEFE000000000000183CC7
:102DC0007E1818187E3C187E000000000000183C99
:102DD0007E1818181818181800000000000018189D
:102DE00018181818187E3C18000000000000000099
:102DF00000180CFE0C18000000000000000000008D
:102E0000003060FE603000000000000000000000A4
:102E10000000C0C0C0FE0000000000000000000074
:102E200000286CFE6C28000000000000000000007C
:102E30001038387C7CFEFE0000000000000000001E
:102E4000FEFE7C7C3838100000000000000000000E
:102E50000000000000000000000000000000183C1E
:102E60003C3C181818001818000000000066666640
:102E70002400000000000000000000000000006CC2
:102E80006CFE6C6C6CFE6C6C0000000018187CC64C
:102E9000C2C07C060686C67C181800000000000030
:102EA000C2C60C183060C686000000000000386CF6
:102EB0006C3876DCCCCCCC760000000000303030B2
:102EC00060000000000000000000000000000C187E
:102ED000303030303030180C000000000000301866
:102EE0000C0C0C0C0C0C1830000000000000000052
:102EF00000663CFF3C66000000000000000000008F
:102F00000018187E181800000000000000000000E3
:102F10000000000000181818300000000000000039
:102F2000000000FE000000000000000000000000A3
:102F30000000000000001818000000000000000061
:102F400002060C183060C080000000000000386CE1
:102F5000C6C6D6D6C6C66C380000000000001838B9
:102F6000781818181818187E0000000000007CC699
:102F7000060C183060C0C6FE0000000000007CC6D1
:102F800006063C060606C67C0000000000000C1C7D
:102F90003C6CCCFE0C0C0C1E000000000000FEC0BF
:102FA000C0C0FC060606C67C0000000000003860B9
:102FB000C0C0FCC6C6C6C67C000000000000FEC63D
:102FC00006060C18303030300000000000007CC6CF
:102FD000C6C67CC6C6C6C67C0000000000007CC613
:102FE000C6C67E0606060C78000000000000000041
:102FF0001818000000181800000000000000000071
:10300000181800000018183000000000000000062A
:103010000C18306030180C060000000000000000A2
:10302000007E00007E000000000000000000006044
:1030300030180C060C1830600000000000007CC640
:10304000C60C181818001818000000000000007CBA
:10305000C6C6DEDEDEDCC07C0000000000001038EA
:103060006CC6C6FEC6C6C6C6000000000000FC66F0
:1030700066667C66666666FC0000000000003C66D2
:10308000C2C0C0C0C0C2663C000000000000F86CB6
:103090006666666666666CF8000000000000FE6604
:1030A00062687868606266FE000000000000FE66EC
:1030B00062687868606060F00000000000003C66B4
:1030C000C2C0C0DEC6C6663A000000000000C6C628
:1030D000C6C6FEC6C6C6C6C60000000000003C1834
:1030E000181818181818183C0000000000001E0CD2
:1030F0000C0C0C0CCCCCCC78000000000000E66678
:10310000666C78786C6666E6000000000000F0608F
:1031100060606060606266FE000000000000C6EE55
:10312000FEFED6C6C6C6C6C6000000000000C6E643
:10313000F6FEDECEC6C6C6C60000000000007CC695
:10314000C6C6C6C6C6C6C67C000000000000FC6637
:1031500066667C60606060F00000000000007CC675
:10316000C6C6C6C6C6D6DE7C0C0E00000000FC66D5
:1031700066667C6C666666E60000000000007CC641
:10318000C660380C06C6C67C0000000000007E7ECB
:103190005A1818181818183C000000000000C6C67D
:1031A000C6C6C6C6C6C6C67C000000000000C6C6AD
:1031B000C6C6C6C6C66C3810000000000000C6C6F1
:1031C000C6C6D6D6D6FEEE6C000000000000C6C60D
:1031D0006C7C38387C6CC6C6000000000000666657
:1031E00066663C181818183C000000000000FEC677
:1031F000860C183060C2C6FE0000000000003C30A3
:10320000303030303030303C0000000000000080B2
:10321000C0E070381C0E06020000000000003C0CEC
:103220000C0C0C0C0C0C0C3C0000000010386CC694
:10323000000000000000000000000000000000008E
:10324000000000000000000000FF00003030180007
:10325000000000000000000000000000000000006E
:1032600000780C7CCCCCCC76000000000000E06044
:1032700060786C666666667C0000000000000000F6
:10328000007CC6C0C0C0C67C0000000000001C0C52
:103290000C3C6CCCCCCCCC760000000000000000D4
:1032A000007CC6FEC0C0C67C000000000000386C78
:1032B0006460F060606060F00000000000000000EA
:1032C0000076CCCCCCCCCC7C0CCC78000000E06080
:1032D000606C7666666666E60000000000001818FE
:1032E000003818181818183C0000000000000606E6
:1032F000000E06060606060666663C000000E06054
:1033000060666C78786C66E6000000000000381893
:10331000181818181818183C0000000000000000C9
:1033200000ECFED6D6D6D6C6000000000000000095
:1033300000DC66666666666600000000000000004D
:10334000007CC6C6C6C6C67C0000000000000000A7
:1033500000DC66666666667C6060F0000000000067
:103360000076CCCCCCCCCC7C0C0C1E000000000039
:1033700000DC7666606060F0000000000000000085
:10338000007CC660380CC67C0000000000001030D5
:1033900030FC30303030361C0000000000000000EF
:1033A00000CCCCCCCCCCCC760000000000000000DF
:1033B0000066666666663C180000000000000000BB
:1033C00000C6C6D6D6D6FE6C000000000000000085
:1033D00000C66C3838386CC60000000000000000E1
:1033E00000C6C6C6C6C6C67E060CF80000000000B1
:1033F00000FECC183060C6FE0000000000000E1871
:10340000181870181818180E00000000000018187E
:10341000181800181818181800000000000070187C
:1034200018180E181818187000000000000076DC3C
:10343000000000000000000000000000000000008C
:1034400010386CC6C6C6FE000000000000003C66D6
:10345000C2C0C0C0C2663C0C067C00000000CC00AC
:1034600000CCCCCCCCCCCC7600000000000C1830CA
:10347000007CC6FEC0C0C67C000000000010386C96
:1034800000780C7CCCCCCC76000000000000CC0096
:1034900000780C7CCCCCCC760000000000603018AA
:1034A00000780C7CCCCCCC760000000000386C3866
:1034B00000780C7CCCCCCC76000000000000000032
:1034C0003C666060663C0C063C0000000010386CF6
:1034D000007CC6FEC0C0C67C000000000000C60024
:1034E000007CC6FEC0C0C67C000000000060301832
:1034F000007CC6FEC0C0C67C000000000000660064
:10350000003818181818183C0000000000183C6615
:10351000003818181818183C000000000060301817
:10352000003818181818183C0000000000C60010D9
:10353000386CC6C6FEC6C6C600000000386C38002F
:10354000386CC6C6FEC6C6C6000000001830600053
:10355000FE66607C606066FE000000000000000007
:1035600000CC76367ED8D86E0000000000003E6C9D
:10357000CCCCFECCCCCCCCCE000000000010386C03
:10358000007CC6C6C6C6C67C000000000000C6009F
:10359000007CC6C6C6C6C67C0000000000603018AD
:1035A000007CC6C6C6C6C67C00000000003078CCD1
:1035B00000CCCCCCCCCCCC76000000000060301825
:1035C00000CCCCCCCCCCCC76000000000000C600F7
:1035D00000C6C6C6C6C6C67E060C780000C6007CFD
:1035E000C6C6C6C6C6C6C67C0000000000C600C669
:1035F000C6C6C6C6C6C6C67C000000000018183C79
:1036000066606060663C18180000000000386C645A
:1036100060F060606060E6FC00000000000066662C
:103620003C187E187E1818180000000000F8CCCC5A
:10363000F8C4CCDECCCCCCC600000000000E1B18B9
:1036400018187E1818181818D87000000018306064
:1036500000780C7CCCCCCC7600000000000C18303C
:10366000003818181818183C0000000000183060C6
:10367000007CC6C6C6C6C67C0000000000183060CC
:1036800000CCCCCCCCCCCC7600000000000076DCAA
:1036900000DC6666666666660000000076DC00C6D2
:1036A000E6F6FEDECEC6C6C600000000003C6C6C2E
:1036B0003E007E00000000000000000000386C6C3E
:1036C00038007C00000000000000000000003030E6
:1036D00000303060C0C6C67C000000000000000062
:1036E0000000FEC0C0C0C0000000000000000000DC
:1036F0000000FE06060606000000000000C0C0C272
:10370000C6CC183060DC860C183E000000C0C0C279
:10371000C6CC183066CE9E3E060600000000181883
:10372000001818183C3C3C18000000000000000085
:1037300000366CD86C36000000000000000000006D
:1037400000D86C366CD80000000000001144114411
:1037500011441144114411441144114455AA55AA6D
:1037600055AA55AA55AA55AA55AA55AADD77DD77B7
:10377000DD77DD77DD77DD77DD77DD7718181818F1
:1037800018181818181818181818181818181818B9
:10379000181818F8181818181818181818181818C9
:1037A00018F818F818181818181818183636363661
:1037B000363636F6363636363636363600000000C1
:1037C000000000FE3636363636363636000000004B
:1037D00000F818F818181818181818183636363649
:1037E00036F606F636363636363636363636363629
:1037F0003636363636363636363636360000000041
:1038000000FE06F636363636363636363636363636
:1038100036F606FE000000000000000036363636A0
:10382000363636FE00000000000000001818181898
:1038300018F818F800000000000000000000000068
:10384000000000F818181818181818181818181860
:103850001818181F000000000000000018181818A1
:10386000181818FF00000000000000000000000011
:10387000000000FF18181818181818181818181829
:103880001818181F18181818181818180000000011
:10389000000000FF000000000000000018181818C9
:1038A000181818FF181818181818181818181818B1
:1038B000181F181F18181818181818183636363602
:1038C0003636363736363636363636363636363697
:1038D0003637303F0000000000000000000000000C
:1038E000003F3037363636363636363636363636AA
:1038F00036F700FF0000000000000000000000009C
:1039000000FF00F736363636363636363636363639
:103910003637303736363636363636360000000023
:1039200000FF00FF000000000000000036363636C1
:1039300036F700F736363636363636361818181853
:1039400018FF00FF00000000000000003636363689
:10395000363636FF000000000000000000000000C6
:1039600000FF00FF18181818181818180000000099
:10397000000000FF363636363636363636363636C0
:103980003636363F000000000000000018181818F6
:10399000181F181F000000000000000000000000B9
:1039A000001F181F18181818181818180000000001
:1039B0000000003F36363636363636363636363640
:1039C000363636FF36363636363636361818181846
:1039D00018FF18FF18181818181818181818181899
:1039E000181818F800000000000000000000000097
:1039F0000000001F1818181818181818FFFFFFFFEC
:103A0000FFFFFFFFFFFFFFFFFFFFFFFF00000000C2
:103A1000000000FFFFFFFFFFFFFFFFFFF0F0F0F0EF
:103A2000F0F0F0F0F0F0F0F0F0F0F0F00F0F0F0F1A
:103A30000F0F0F0F0F0F0F0F0F0F0F0FFFFFFFFFD6
:103A4000FFFFFF0000000000000000000000000079
:103A50000076DCD8D8D8DC7600000000000078CCF6
:103A6000CCCCD8CCC6C6C6CC000000000000FEC638
:103A7000C6C0C0C0C0C0C0C0000000000000000040
:103A8000FE6C6C6C6C6C6C6C00000000000000FE46
:103A9000C66030183060C6FE000000000000000064
:103AA000007ED8D8D8D8D8700000000000000000F0
:103AB00066666666667C6060C0000000000000000C
:103AC00076DC181818181818000000000000007E96
:103AD000183C6666663C187E000000000000003856
:103AE0006CC6C6FEC6C66C38000000000000386C0C
:103AF000C6C6C66C6C6C6CEE0000000000001E3088
:103B0000180C3E666666663C00000000000000007F
:103B1000007EDBDBDB7E0000000000000000000315
:103B2000067EDBDBF37E60C00000000000001C307E
:103B300060607C606060301C000000000000007C61
:103B4000C6C6C6C6C6C6C6C6000000000000000045
:103B5000FE0000FE0000FE0000000000000000006B
:103B600018187E18180000FF000000000000003048
:103B7000180C060C1830007E000000000000000C3D
:103B800018306030180C007E0000000000000E1B92
:103B90001B181818181818181818181818181818A2
:103BA00018181818D8D8D8700000000000000000BD
:103BB0001818007E00181800000000000000000027
:103BC0000076DC0076DC00000000000000386C6C41
:103BD00038000000000000000000000000000000AD
:103BE00000000018180000000000000000000000A5
:103BF000000000001800000000000000000F0C0C86
:103C00000C0C0CEC6C6C3C1C0000000000D86C6CC4
:103C10006C6C6C0000000000000000000070D830E8
:103C200060C8F80000000000000000000000000074
:103C30007C7C7C7C7C7C7C00000000000000000020
:103C40000000000000000000000000001000000064
:103C5000981100200000000038120020941300206A
:103C60000000000000000000A4130020000000007D
:103C70000000000010000000000000000000010033
:103C80000000000000000000000002000000000032
:103C90000000000000000300000000000000000021
:103CA0000000FF000000000000B5486801318E46AA
:103CB0000047704609380149884700BD291F001098
:103CC000503300004C3300005433000052330000E6
:103CD0004D5300004D4300005334000043340000B6
:103CE00000000000000000000000000000000000D4
:103CF000492400102121001029220010B9230010AE
:043D00003903001073
:04000005100001E9FD
:00000001FF
